:040000000201353292
:03000B0002013CB3
:200010000000E2FBEAF2802C0000E0FBEAF08024E6B50202EBF62200E2B50202EBF22200D6
:20003000E0B50202EBF02230F6E0A88220F5D3EAC6F582228B822230F6E6A88220F5D980E6
:01005000CFE0
:03007E000200512C
:0300510002012386
:20008100753341753700E53560FC20E7F91535E53460FC20E7F91534E5372430F8A6337497
:2000A10002B537067E007F008009AD370DEDFE3395E0FF8E3705340536745AB533067E418E
:2000C1007F008009AD330DEDFE3395E0FF8E3380B5D20010AF02C200438920758DFA759858
:2000E10050D28EA20092AF753800E53660FC20E7F91536E53460FC20E7F91534E5382430CE
:20010100F987997402B538067E007F008009AD380DEDFE3395E0FF8E38053405351099CAA6
:2001210080FB7536007534017535039000811201BD0200D202014222222222020168020052
:010141005469
:2001420075250075890075A882D28C9001231201BD858224E5242420F98781D0D0D083D048
:2001620082D0F0D0E022C2AFC0E0C0F0C082C083C0D0E5242420F8A68174FD2524400BAF73
:20018200240FEFFE3395E0FF80047E007F008E248524F005F07401800225E0D5F0FBF529FB
:2001A200E529552560D3E5242420F98781D0D0D083D082D0F0D0E0D2AF3222740FB5250449
:2001C2007582FF22D20110AF02C2017526007404B5260280268526F005F07401800225E08C
:2001E200D5F0FBF529E52955257009E52942258526288007E52604F52680D3858127E52898
:20020200C454F0FF243FF581C082C0835400C0E0C0E0C0E0C0E0E528C40354F8F5D0C0D02E
:20022200E5282420F8A681852781A20192AF85288222D20210AF02C202C0E0C0F0C082C03F
:2002420083C0D0E5242420F8A68174FD2524400BAF240FEFFE3395E0FF80047E007F008E93
:20026200248524F005F07401800225E0D5F0FBF529E529552560D3E5242420F98781D0D047
:20028200D083D082D0F0D0E0A20292AF22C2AF8524F005F07401800225E0D5F0FBF529E582
:2002A20029622575260074FC252640228526F005F07401800225E0D5F0FBF529E5255529E2
:2002C20060058526248007E52604F52680D87404B526037524FFE5242420F98781D0D0D033
:0A02E20083D082D0F0D0E0D2AF222A
:20005400C000A88118C0D0B6001B18B610004015B637005010C0E0E65407B406005004E6D5
:0A00740054F8F6D0E0D0D0D00032EE
:00000001FF
