:030000000200A853
:200008000000E2FBEAF2802C0000E0FBEAF08024E6B50202EBF62200E2B50202EBF22200DE
:20002800E0B50202EBF02230F6E0A88220F5D3EAC6F582228B822230F6E6A88220F5D980EE
:01004800CFE8
:03004C0002004966
:0300490002009C16
:20004F00753B41E53C600512015180F7853B3A753C01745AB53B047E418008AD3B0DEDFEAA
:20006F003395E08E3B80DC758920758DFA759850D28EE53C700512015180F7853A99753C53
:20008F000020990512015180F8C29980E5753C0090004F1200CD0200760200AF22222222D7
:2000AF0075350090009C1200CD858234E5342430F98781D0D0D083D082D0F0D0E022740F79
:2000CF00B535047582FF227536007404B53602803E8536F005F07E017F008006EE2EFEEF10
:2000EF0033FFD5F0F7AC357D00EC5206ED5207EE4F70158536F005F07401800225E0D5F0F8
:20010F00FB42358536388007E53604F53680BB858137E538C454F0FF243FF581C082C083A0
:20012F005400C0E0C0E0C0E0C0E0E538C40354F8F5D0C0D0E5382430F8A6818537818538CD
:20014F008222C0E0C0F0C082C083C0D0E5342430F8A68174FD2534400AAF340FEFFE339540
:20016F00E080027E008E348534F005F07E017F008006EE2EFEEF33FFD5F0F7AC357D00EC6B
:20018F005206ED5207EE4F60CAE5342430F98781D0D0D083D082D0F0D0E0228534F005F068
:2001AF007401800225E0D5F0FBF539E539623575360074FC253640228536F005F074018024
:2001CF000225E0D5F0FBF539E535553960058536348007E53604F53680D87404B53603751B
:1401EF0034FFE5342430F98781D0D0D083D082D0F0D0E02284
:00000001FF
