:0400000002039B322A
:03000B000203A24B
:200010000000E2FBEAF2802C0000E0FBEAF08024E6B50202EBF62200E2B50202EBF22200D6
:20003000E0B50202EBF02230F6E0A88220F5D3EAC6F582228B822230F6E6A88220F5D980E6
:01005000CFE0
:03007E000200512C
:030051000203198E
:20008100C2AFE539600312049CE537700BE53030E60675390112049C7401B5370BE53230DF
:2000A100E60675390112049C753A00E53030E703753A01E5302530F530E53130E705E5308E
:2000C10004F530E53125E0F531E53A600AE53804F538E53104F531753A00E53230E7037549
:2000E1003A01E5322532F532E53330E705E53204F532E53325E0F533E53A600AE53804F5D5
:2001010038E53304F5337582801205CF753B80E53B6019E53B553060047F0280027F208F02
:200121008212061BE53BC313F53B80E3753B807401B53B028019E53B553160047F02800243
:200141007F208F8212061BE53BC313F53B80E07582C01205CF753B80E53B6019E53B553228
:2001610060047F0280027F208F8212061BE53BC313F53B80E3753B807401B53B028019E596
:200181003B553360047F0280027F208F8212061BE53BC313F53B80E0E537030354C0FF7422
:2001A100804FF5821205CF75820112061BD2AF12049C020081120795E58260F91207A28583
:2001C1008235D20010AF02C2007432B5352B7401B53726E53030E70675390112049C753791
:2001E100007582C01205CF75822012061B7582801205CF75820112061B7438B5352AE537B3
:200201007026E53230E70675390112049C7537017582801205CF75822012061B7582C01295
:2002210005CF75820112061BA20092AF120795E58270F90201B6E5397003020313C2AF7515
:2002410082801205CF75824712061B75824112061B75824D12061B75824512061B758220DC
:2002610012061B75824F12061B75825612061B75824512061B75825212061B758220120637
:200281001B75822012061B75822012061B75822012061B75822012061B75822012061B755B
:2002A10082C01205CF75825312061B75826312061B75826F12061B75827212061B7582657A
:2002C10012061B75822012061B75823A12061BAF3875F00AEF842430F58212061BAF387519
:2002E100F00AEF84AFF074302FF58212061B75822012061B75822012061B75822012061B96
:2003010075822012061B75822012061B75822002061B12049C02023712078F12056E7582FD
:20032100071205CF75820C1205CF7530217531C4753208753311C2AF7534007539007538D9
:2003410000753700120795E58260F91207A2858235120795E58270F97423B53506E53470FD
:200361001180E1742AB5350280DAE53524D0F53480D29000811204229001B61204227589D7
:2003810000E534C454F0F58C758A0075A882D28C120237C2AF12056680900203A822222262
:0703A100220203C602005412
:2003A800752A00900319120422858229E5292425F98781D0D0D083D082D0F0D0E022C2AFE2
:2003C800C0E0C0F0C082C083C0D0E5292425F8A68174FD2529400BAF290FEFFE3395E0FFB5
:2003E80080047E007F008E298529F005F07401800225E0D5F0FBF52EE52E552A60D3E5346D
:20040800C454F0F58CD2AFE5292425F98781D0D0D083D082D0F0D0E03222740FB52A04758E
:2004280082FF22D20110AF02C201752B007404B52B028029752E01852BF005F0E52E800249
:2004480025E0D5F0FBF52EE52E552A7009E52E422A852B2D8007E52B04F52B80D085812C08
:20046800E52DC454F0FF243FF581C082C0835400C0E0C0E0C0E0C0E0E52DC40354F8F5D03F
:20048800C0D0E52D2425F8A681852C81A20192AF852D8222C2AFC0E0C0F0C082C083C0D008
:2004A800E5292425F8A68174FD2529400BAF290FEFFE3395E0FF80047E007F008E29852953
:2004C800F005F07401800225E0D5F0FBF52EE52E552A60D3E534C454F0F58CD2AFE5292436
:2004E80025F98781D0D0D083D082D0F0D0E022D20210AF02C2028529F005F07401800225EF
:20050800E0D5F0FBFF622A752B0074FC252B402E852BF005F07E017F008006EE2EFEEF3385
:20052800FFD5F0F7AC2A7D00EC5206ED5207EE4F6005852B298007E52B04F52B80CC740421
:20054800B52B037529FFE5292425F98781D0D0D083D082D0F0D0E0D2AFA20292AF22752ADF
:0205680001226E
:20056A00853E82221205F17582071205CF75820F1205CF750807750905750A06750B0775AA
:20058A000C14750D17750E0E750F0A751808751900751A4075820812067E751004751105DE
:2005AA0075121575131575141675150C751604751704751810751900751A4075821012068B
:2005CA007E753E0122AF82753E0074F05FF590D292C292EFC454F0F590D292C2927582327C
:2005EA0012067A753E0122753E00759020D292C29275823212067AD292C292758232120645
:20060A007AD297D292C29275823212067A753E0122AF82753E0074F05F4408F590D293D2F5
:20062A0092C292EFC454F0FF74084FF590D292C29275823212067A753E0122AD82AE83AF2C
:20064A00F08D828E838FF012081EFCA3AD82AE83EC601C8D828E838FF012081EF582C0074D
:20066A00C006C00512061BD005D006D00780D222D582FD22AF8274404FF5821205CFAD18F0
:20068A00AE19AF1A8D828E838FF012081EF582C007C006C00512061BD005D006D0077401F6
:2006AA002DFAE43EFB8F048A828B838CF012081EF582C007C006C00512061BD005D006D014
:2006CA000774022DFAE43EFB8F048A828B838CF012081EF582C007C006C00512061BD0051D
:2006EA00D006D00774032DFAE43EFB8F048A828B838CF012081EF582C007C006C005120646
:20070A001BD005D006D00774042DFAE43EFB8F048A828B838CF012081EF582C007C006C051
:20072A000512061BD005D006D00774052DFAE43EFB8F048A828B838CF012081EF582C00799
:20074A00C006C00512061BD005D006D00774062DFAE43EFB8F048A828B838CF012081EF53B
:20076A0082C007C006C00512061BD005D006D00774072DFDE43EFE8D828E838FF012081E4A
:05078A00F58202061BD0
:20078F00D2B37580F0227580F0A2B3B39203E433F582227580F774B7B5800475823122747E
:2007AF00D7B580047582322274E7B58004758233227580FB74BBB580047582342274DBB546
:2007CF0080047582352274EBB58004758236227580FD74BDB580047582372274DDB580041B
:2007EF007582382274EDB58004758239227580FE74BEB5800475822A2274DEB5800475828A
:0F080F00302274EEB58004758223227582002298
:20005400C000A88118C0D0B6001B18B610004015B637005010C0E0E65407B406005004E6D5
:0A00740054F8F6D0E0D0D0D00032EE
:1C081E0020F71430F6148883A88220F507E6A88375830022E280F7E49322E022E9
:00000001FF
