:040000000200E632E2
:03000B000200ED03
:200010000000E2FBEAF2802C0000E0FBEAF08024E6B50202EBF62200E2B50202EBF22200D6
:20003000E0B50202EBF02230F6E0A88220F5D3EAC6F582228B822230F6E6A88220F5D980E6
:01005000CFE0
:03007E000200512C
:030051000200DAD0
:20008100753B41E53C70FCD20010AF02C200853B3A753C01A20092AF745AB53B05753B4149
:2000A10080E1E53B04F53B80DAD20110AF02C201438920758DFA759850D28EA20192AFE56B
:2000C1003C60FCD20110AF02C201853A99753C00A20192AF1099E880FB753C009000811263
:1200E100016E0200AA0200F32222222202011902005403
:2000F30075350075890075A882D28C9000DA12016E858234E5342430F98781D0D0D083D0F1
:2001130082D0F0D0E022C2AFC0E0C0F0C082C083C0D0E5342430F8A681AE347F008E828F56
:2001330083A37508048F091202EAAE82AF838E348534F005F07401800225E0D5F0FBF539C3
:20015300E539553560D3E5342430F98781D0D0D083D082D0F0D0E0D2AF3222740FB5350448
:200173007582FF22D20210AF02C2027536007404B5360280268536F005F07401800225E0A9
:20019300D5F0FBF539E53955357009E53942358536388007E53604F53680D3858137E53837
:2001B300C454F0FF243FF581C082C0835400C0E0C0E0C0E0C0E0E538C40354F8F5D0C0D06E
:2001D300E5382430F8A681853781A20292AF85388222D20310AF02C203C0E0C0F0C082C04C
:2001F30083C0D0E5342430F8A681AE347F008E828F83A37508048F091202EAAE82AF838E20
:20021300348534F005F07401800225E0D5F0FBF539E539553560D3E5342430F98781D0D026
:20023300D083D082D0F0D0E0A20392AF22C2AF8534F005F07401800225E0D5F0FBF539E5B0
:2002530039623575360074FC253640228536F005F07401800225E0D5F0FBF539E5355539B1
:2002730060058536348007E53604F53680D87404B536037534FFE5342430F98781D0D0D002
:0A02930083D082D0F0D0E0D2AF2279
:20005400C000A88118C0D0B6001B18B610004015B637005010C0E0E65407B406005004E6D5
:0A00740054F8F6D0E0D0D0D00032EE
:20029D00E508450960467A01E50825E0F508E509334012F509E5829508E583950940030A2E
:2002BD0080E6C3E50913F509E50813F508C3E5829508F5F0E58395094005F58385F082C3D3
:0D02DD00E50913F509E50813F508DAE1223B
:2002EA00C2D5E58330E70DD2D5E4C39582F582E49583F583E50930E70BE4C39508F508E44C
:16030A009509F50912029D30D50BE4C39582F582E49583F58322B5
:00000001FF
