:0400000002018C323B
:03000B000201935C
:200010000000E2FBEAF2802C0000E0FBEAF08024E6B50202EBF62200E2B50202EBF22200D6
:20003000E0B50202EBF02230F6E0A88220F5D3EAC6F582228B822230F6E6A88220F5D980E6
:01005000CFE0
:03007E000200512C
:0300510002016B3E
:20008100120435E58260F9D20010AF02C200120447858233A20092AFE53560FC20E7F915FA
:2000A10035E53460FC20E7F91534E5372430F8A6337402B537067E007F008009AD370DED3F
:2000C100FE3395E0FF8E3705340536120435E58260AE80F71204D9E58260F9D20110AF02C7
:2000E100C2011204E6858239A20192AFE53560FC20E7F91535E53460FC20E7F91534E53782
:200101002430F8A6397402B537067E007F008009AD370DEDFE3395E0FF8E370534053612F7
:2001210004D9E58260AE80F7753800E53660FC20E7F91536E53460FC20E7F91534E5382487
:2001410030F9873A053405357402B538047E008008AD380DEDFE3395E08E38853A82120333
:20016100D212036FE58270C380F77537001204D3120373753600753401753503900129122C
:18018100024B9000D512024B020081020199222222220201C202005493
:20019900752A00752F0175890075A882D28C90016B12024B858229E5292425F98781D0D084
:2001B900D083D082D0F0D0E022C2AFC0E0C0F0C082C083C0D0E5292425F8A681E52F602807
:2001D9007403B52903D38001C3B39202E433F52F7403B529067E027F008009AD290DEDFE64
:2001F9003395E0FF8E29801FE4B5290474018001E4F52FE52970057E01FF8009AD291DEDBB
:20021900FE3395E0FF8E298529F005F07401800225E0D5F0FBF52EE52E552A609FE5292434
:2002390025F98781D0D0D083D082D0F0D0E0D2AF3222C2AF740FB52A047582FF22752B0066
:200259007404B52B028029752E01852BF005F0E52E800225E0D5F0FBF52EE52E552A7009C1
:20027900E52E422A852B2D8007E52B04F52B80D085812CE52DC454F0FF243FF581C082C0D8
:20029900835400C0E0C0E0C0E0C0E0E52DC40354F8F5D0C0D0E52D2425F8A681852C81D2F6
:2002B900AF852D8222C2AFC0E0C0F0C082C083C0D0E5292425F8A68174FD2529400BAF29F2
:2002D9000FEFFE3395E0FF80047E007F008E298529F005F07401800225E0D5F0FBF52EE5D3
:2002F9002E552A60D3D2AFE5292425F98781D0D0D083D082D0F0D0E022C2AF8529F005F051
:200319007401800225E0D5F0FBF52EE52E622A752B0074FC252B4022852BF005F0740180FA
:200339000225E0D5F0FBF52EE52A552E6005852B298007E52B04F52B80D87404B52B037507
:1603590029FFE5292425F98781D0D0D083D082D0F0D0E0D2AF22B6
:20036F00853E82221203A875820712038675820F120386753E0122AF82753E0074F05FF59E
:20038F0090D292C292EFC454F0F590D292C292758228120431753E0122753E00759020D2EC
:2003AF0092C292758228120431D292C292758228120431D297D292C29275822812043175C8
:2003CF003E0122AF82753E0074F05F4408F590D293D292C292EFC454F0FF74084FF590D200
:2003EF0092C292758228120431753E0122AD82AE83AFF08D828E838FF0120562FCA3AD82E7
:20040F00AE83EC601C8D828E838FF0120562F582C007C006C0051203D2D005D006D007806A
:06042F00D222D582FD225D
:20043500E5A0F4F53CE53CB40100B39203E433F58222AEA07F00EEF4FEEFF4EE30E7047521
:20045500823722AEA07F00EEF4FEEFF4EE30E60475823622AEA07F00EEF4FEEFF4EE30E532
:200475000475823522AEA07F00EEF4FEEFF4EE30E40475823422AEA07F00EEF4FEEFF4EEB4
:2004950030E30475823322AEA07F00EEF4FEEFF4EE30E20475823222AEA07F00EEF4FEEF69
:1E04B500F4EE30E10475823122AEA07F00EEF4FEEFF4EE30E0047582302275820022F4
:2004D300D2B37580F0227580F0A2B3B39204E433F582227580F774B7B5800475823122743C
:2004F300D7B580047582322274E7B58004758233227580FB74BBB580047582342274DBB505
:2005130080047582352274EBB58004758236227580FD74BDB580047582372274DDB58004D9
:200533007582382274EDB58004758239227580FE74BEB5800475822A2274DEB58004758248
:0F055300302274EEB58004758223227582002257
:20005400C000A88118C0D0B6001B18B610004015B637005010C0E0E65407B406005004E6D5
:0A00740054F8F6D0E0D0D0D00032EE
:1C05620020F71430F6148883A88220F507E6A88375830022E280F7E49322E022A8
:00000001FF
