:040000000201823245
:03000B0002018966
:200010000000E2FBEAF2802C0000E0FBEAF08024E6B50202EBF62200E2B50202EBF22200D6
:20003000E0B50202EBF02230F6E0A88220F5D3EAC6F582228B822230F6E6A88220F5D980E6
:01005000CFE0
:03007E000200512C
:0300510002016742
:20008100753341E53560FC20E7F91535E53460FC20E7F91534E5372430F8A6337402B53755
:2000A100067E007F008009AD370DEDFE3395E0FF8E3705340536745AB533067E417F00807D
:2000C10009AD330DEDFE3395E0FF8E3380B5753930E53560FC20E7F91535E53460FC20E787
:2000E100F91534E5372430F8A6397402B537067E007F008009AD370DEDFE3395E0FF8E3740
:20010100053405367439B539067E307F008009AD390DEDFE3395E0FF8E3980B5C2AF438955
:2001210020758DFA759850D28ED2AF753800E53660FC20E7F91536E53460FC20E7F9153437
:20014100E5382430F9879905347402B538067E007F008009AD380DEDFE3395E0FF8E38059D
:20016100351099CA80FB75370075360075340175350390011D1202349000CF12023402000E
:0E0181008102018F222222220201B8020054C4
:20018F00752A00752F0175890075A882D28C900167120234858229E5292425F98781D0D0A9
:2001AF00D083D082D0F0D0E022C2AFC0E0C0F0C082C083C0D0E5292425F8A681E52F602118
:2001CF007403B52903D38001C3B39200E433F52F7403B529057529028020E52904F52980D7
:2001EF0019E4B5290474018001E4F52FE52970057529018005E52914F5298529F005F07425
:20020F0001800225E0D5F0FBF52EE52E552A60ACE5292425F98781D0D0D083D082D0F0D099
:20022F00E0D2AF3222C2AF740FB52A047582FF22752B007404B52B028029752E01852BF024
:20024F0005F0E52E800225E0D5F0FBF52EE52E552A7009E52E422A852B2D8007E52B04F526
:20026F002B80D085812CE52DC454F0FF243FF581C082C0835400C0E0C0E0C0E0C0E0E52D65
:20028F00C40354F8F5D0C0D0E52D2425F8A681852C81D2AF852D8222C2AFC0E0C0F0C08261
:2002AF00C083C0D0E5292425F8A68174FD2529400BAF290FEFFE3395E0FF80047E007F00E0
:2002CF008E298529F005F07401800225E0D5F0FBF52EE52E552A60D3D2AFE5292425F987C9
:2002EF0081D0D0D083D082D0F0D0E022C2AF8529F005F07401800225E0D5F0FBF52EE52EA1
:20030F00622A752B0074FC252B4022852BF005F07401800225E0D5F0FBF52EE52A552E601A
:20032F0005852B298007E52B04F52B80D87404B52B037529FFE5292425F98781D0D0D0837A
:09034F00D082D0F0D0E0D2AF2240
:20005400C000A88118C0D0B6001B18B610004015B637005010C0E0E65407B406005004E6D5
:0A00740054F8F6D0E0D0D0D00032EE
:00000001FF
